:1000000040110020791700004B4800004D170000F8
:100010004D1700004D1700004D17000000000000B4
:100020000000000000000000000000006514000057
:100030004D17000000000000111400004D170000D3
:100040001515000015150000151500001515000008
:1000500015150000151500001515000015150000F8
:1000600015150000151500001515000015150000E8
:1000700015150000151500001515000015150000D8
:1000800015150000151500001515000015150000C8
:1000900015150000151500001515000015150000B8
:1000A00015150000151500001515000015150000A8
:0800B0001515000015150000F4
:1000B80053B94AB9002908BF00281CBF4FF0FF31C7
:1000C8004FF0FF3000F00CB8ADF1080C6DE904CE2C
:1000D80000F008F8DDF804E0DDE9022304B0704719
:1000E800704700BF2DE9F04786468C460846089EB3
:1000F800154674461946002B40F0C2808542B2FA74
:1001080082F245D94AB1C2F1200300FA02FC2EFA64
:1001180003F3954043EA0C0C94404FEA154EA8B2FD
:10012800BCFBFEF8230C0EFB18CC08FB00F943EAD5
:100138000C43994528D9EB1808F1FF3704D29945A3
:1001480002D9A8F102072B44A3EB0903A4B2B3FB1D
:10015800FEFC0EFB1C330CFB00F044EA0344A042F7
:1001680014D92C190CF1FF3304D2A04202D9ACF1F6
:1001780002032C44241A43EA07401EB1D44000234A
:1001880034607360BDE8F0874746DDE76346F1E712
:1001980092BB431B01214FEA154EAFB2B3FBFEFCE5
:1001A800200C0EFB1C330CFB07F840EA0343984570
:1001B80062D9EB180CF1FF3004D2984502D9ACF1A2
:1001C80002002B44A3EB0803A4B2B3FBFEFC0EFB16
:1001D8001C330CFB07F744EA0344A7424ED92C19F9
:1001E8000CF1FF3304D2A74202D9ACF102032C442C
:1001F800E41B43EA0040C0E7C2F1200320FA03F100
:10020800954090402EFA03F303434FEA154EAFB2E0
:10021800B1FBFEFC0EFB1C10190C0CFB07F841EAA5
:100228000041884504FA02F422D969180CF1FF301C
:1002380004D2884502D9ACF102002944A1EB080197
:100248009BB2B1FBFEFC0EFB1C110CFB07F743EA4B
:1002580001439F420ED9EB180CF1FF3104D29F42A3
:1002680002D9ACF102012B44DB1B41EA004192E7C1
:100278006046E3E76146F7E76046A3E76346B7E70A
:10028800834206D916B9002108467BE7C6E900E093
:10029800F9E7B3FA83F78FB9834201D3724508D8D7
:1002A800BEEB020460EB030301209C461EB900214B
:1002B80068E73846FAE7C6E9004CF8E7C7F1200CCA
:1002C800BB4022FA0CF41C432EFA0CF120FA0CF372
:1002D800B84001434FEA14490EFA07F5B3FBF9F8A1
:1002E8001FFA84FE09FB18300B0C08FB0EFA43EAD0
:1002F80000439A4502FA07F240D9E31808F1FF30A3
:1003080004D29A4502D9A8F102002344A3EB0A03B8
:1003180089B2B3FBF9F809FB183308FB0EFE41EA72
:1003280003418E452CD9611808F1FF3304D28E455C
:1003380002D9A8F10203214443EA0040A0FB029835
:10034800A1EB0E014145CE46434602D306D14D45A9
:1003580004D2B9EB020E68EB04030138002EA6D0D4
:10036800B5EB0E0261EB030101FA0CFC22FA07F36C
:100378004CEA0303F940C6E9003198E74046C5E76F
:100388004346D9E7F8B50D4E0D4F04460825002120
:10039800304604F0A9F823064CBF01210021384655
:1003A80004F0A2F8013D0121304604F09DF86400F4
:1003B80015F0FF05E4B2EAD1F8BD00BF0055000012
:1003C800F854000038B5094D04460021284604F0C9
:1003D8008BF80021064804F087F82046FFF7D2FF83
:1003E80028460121BDE8384004F07EB808550000D1
:1003F8001055000038B5094D04460021284604F080
:1004080073F80121064804F06FF82046FFF7BAFF99
:1004180028460121BDE8384004F066B808550000B8
:100428001055000037B5084C2569A36806485B6875
:1004380001A998470028F8D12A68019B5340DB0698
:10044800F3D403B030BD00BF6C53000010B5344C7A
:100458000021204604F048F80A2004F06EF8012133
:10046800204604F041F80A2004F067F8FFF7DAFFA5
:100478001220FFF7A7FFFFF7D5FF0120FFF7A2FF24
:10048800F920FFF7B7FF0020FFF7B4FF0020FFF7C0
:10049800B1FF1120FFF796FF0120FFF7ABFF4420C3
:1004A800FFF790FF0020FFF7A5FF0F20FFF7A2FF3F
:1004B8004520FFF787FFF920FFF79CFF0020FFF793
:1004C80099FF0020FFF796FF0020FFF793FF3C20DD
:1004D800FFF778FF0520FFF78DFF1820FFF772FF61
:1004E8008020FFF787FF2120FFF76CFF0020FFF730
:1004F80081FF8020FFF77EFF4E20FFF763FF00207B
:10050800FFF778FF4F20FFF75DFFF920FFF772FF35
:100518000020FFF76FFFBDE81040FFF783BF00BF63
:1005280018550000F8B52048204C214F214E224D87
:100538004FF4803103F0ECFF20484FF4003103F012
:10054800E7FF1F484FF4003103F0E2FF1D484FF466
:10055800003103F0DDFF1C484FF4003103F0D8FFF1
:100568001A484FF4003103F0D3FF19484FF4003113
:1005780003F0CEFF2146384603F0CAFF2146304635
:1005880003F0C6FF2146284603F0C2FF3846002183
:1005980003F0AAFF3046002103F0A6FF28460021F9
:1005A800BDE8F84003F0A0BF20550000010002009C
:1005B800E8540000E0540000D8540000185500002A
:1005C800105500000855000000550000F8540000C0
:1005D800F0540000F0B5274A07CA93B00FAB83E880
:1005E80007000E93244B254918681B798DF80430B1
:1005F8004FF4807204AB0524CDE90C1202AD0893C8
:1006080006AA01230090CDF810D00594CDE9065430
:100618000993CDE90A231A481A4F836808AA1E6865
:100628000CA90AABB0472420FFF7CCFE164E287859
:10063800FFF7E0FE15F8013BFF2B0CBF38463046AC
:10064800002103F051FF013CF1D140F69B74FF20DB
:10065800FFF7D0FE013CFAD12620FFF7B3FE4FF496
:100668007A640020FFF7C6FE013CFAD103F081FF4F
:1006780013B0F0BDC05400003456000040420F00D3
:100688009C530000E8540000E054000010B5094CE9
:10069800FFF748FF2046012103F026FFFFF7D6FEAB
:1006A800FFF798FF03F059FF2046002103F01CFFD5
:1006B80010BD00BFF0540000014B1B68184700BF75
:1006C8000000002007B50B460021024600910348B0
:1006D80000F014F903B05DF804FB00BFC106000088
:1006E8002DE9F047058B04462807904611D40229C6
:1006F80005F0070540F0CD80204603F075FF78B17E
:100708000138218B042811D8DFE800F0C3106D856B
:10071800950001290CBF45F0100545F020052583FB
:1007280088F31188BFF36F8FBDE8F08701F0070ADF
:10073800AA4500F0A6800027B9463E46A368002BCC
:1007480000F0BD8041F00801218388F31188BFF3D0
:100758006F8FA168002900F0BB800D68002900F0A8
:10076800B780D1F80480334652462046C047002D52
:1007780076D02B6829461D46F0E701F007035A1F7B
:10078800012A1BD8002221F00701062B276889B20D
:10079800C4E9002209D13B4603E0628B013262833F
:1007A8001B68002BF9D141F002012183204603F098
:1007B8001BFF00287BD041F0200177E0042B0AD1F1
:1007C80021F0070189B22183204603F00DFF10B103
:1007D80041F020012183218B01F0070AAA4550D05E
:1007E8000027B946AAE7236921F0070141F006016D
:1007F800062DD3F8009021832DD1B9F1000F40D0F8
:1008080041F00801218388F31188BFF36F8F3A49BB
:100818002046C84729E021F00701236941F0040177
:1008280089B2042DD3F804902183E6D000273E46F0
:100838004FF0040A82E721F00701236941F005011E
:1008480089B2052DD3F808902183D6D000273E46DB
:100858004FF0050A72E700273E464FF0060A6DE79B
:100868002B4687E7B9F1000FD1D14FF02003EFF302
:10087800118883F31288BFF36F8F238B23F008034B
:100888002383258BEA062ED525F01003238305F054
:1008980007056669218B002EBFF66FAF0023276816
:1008A800C4E9003321F0070141F001012183218BC4
:1008B80001F0070AAA454FF000097FF43FAF002F67
:1008C8009BD041F00801218388F31188BFF36F8F13
:1008D800002FC7D03D68394633465246204603F0BC
:1008E800AFFE2F46F4E7AB067FF51AAF25F02003DD
:1008F800238305F00705FFE6754600002DE9F04F54
:10090800814695B08B4617461C460025387808B9AD
:10091800284658E37B1C2528039306D05946C84728
:100928000028C0F250830135FBE1182200210EA8EF
:1009380003F0A9FF7B78252B7DD00023781C9846EF
:100948009E469C461E46014610F8012B2B2A00F0B5
:10095800A18000F29880202A00F09F80232A00F0CE
:100968009F802BB19DF8403043F040038DF8403014
:10097800B8F1000F05D09DF8403043F020038DF802
:100988004030BEF1000F05D09DF8403043F0100311
:100998008DF84030BCF1000F05D09DF8403043F091
:1009A80008038DF840302EB19DF8403043F0040321
:1009B8008DF840309DF8403003F04400442803D1BE
:1009C8006FF386138DF840309DF840302A2A43F0A3
:1009D80080038DF840307FD19DF8412042F001021C
:1009E8004B1C8DF841201A782E2A9DF841200CBF07
:1009F8000121002161F341028DF8412078D15A7814
:100A08002A2A6ED0013300224FF00A0C194611F839
:100A1800010BA0F13006092E40F295809DF8401098
:100A28001292C1F3400040EAD2700A4660F34102D4
:100A38008DF840205CE0BA1C03928DF843309DF895
:100A48004130DA0740F12E8154F8048BB8F1000FD9
:100A580007DA9DF8402042F004028DF84020C8F1E2
:100A680000085E0740F1278154F804ABBAF1000F83
:100A780080F226819DF841306FF341038DF84130B3
:100A88004FF0FF3A1CE12D2A0DD0302A7FF469AFD0
:100A9800012358E74FF0010C55E74FF0010E52E7DC
:100AA8004FF001084FE701264DE70EFB0262303A8E
:100AB8000346184610F8016BA6F1300CBCF1090F7B
:100AC800F3D999428FD09DF840101192D20F62F35A
:100AD80041018DF8401086E70B4600224FF00A0EC0
:100AE800E7E79DF8412042F004028DF841200233E7
:100AF8001A786C2A47D02BD8682A31D06A2A4BD06A
:100B08004C2A51D01A4612F8013B0392782B9DF8D3
:100B180041208DF8433000F2BE806D2B51D8692BEF
:100B280000F2B980572B67D8412B03D0453B022BE5
:100B380000F2B1809DF84230042262F302038DF87E
:100B48004230012373E00CFB0202303A0B465DE7AA
:100B5800742A25D07A2AD5D19DF8412006210CE0A7
:100B68005A78682A9DF8412006D1012161F3C6020E
:100B78008DF841200233C5E7022161F3C6028DF8E2
:100B880041200133BEE75A786C2A9DF8412001D1F3
:100B98000421EBE70321F0E79DF841200521ECE76C
:100BA8009DF841200721E8E7BDF8402022F4F042F3
:100BB80022F0020242F4804242F00202ADF84020E4
:100BC800DFE76E3BD9B201238B4040F282410B42F2
:100BD80037D113F0240F51D1D8075CD59DF8423096
:100BE800032161F302038DF8423002F07803A3F188
:100BF80040014B424B411AE0A3F15801C9B2012010
:100C080000FA01F111F4624F94D140F60106314225
:100C18001DD111F4043F3ED09DF8423060F3020329
:100C280002F07802402A8DF8423034D000239DF833
:100C38004020C2F340010B4363F341028DF840208A
:100C4800FDE69DF84230022161F30203E8E79DF8D2
:100C58004210022002F0780260F30201402A8DF867
:100C6800421002BF9DF8401041F001018DF840107C
:100C7800632BDBD1131E18BF0123D8E79DF8423040
:100C8800032161F3020312F0780F8DF8423014BF8C
:100C980001230023CBE79DF8403043F001038DF892
:100CA8004030C3E79DF94020002AB4BFDDF84480F6
:100CB8004FF0FF38D5E698077FF5E2AEDDF848A09B
:100CC8009DF841100023CDE911339DF8423003F01F
:100CD8000703012BC1F3C30133D1CB1E042B04D866
:100CE800DFE803F0214646212100236801294FEA65
:100CF800E372CDE90E321CD19DF93830DA17CDE90F
:100D08000E3204349DF8403013F0030650D0039B94
:100D18003A465946484603F072FD0028C0F253810E
:100D28000544039FF2E554F8043BDA17CDE90E3287
:100D3800E8E70229E5D11AB243F3C033CDE90E231F
:100D4800DFE7022B24D1CB1E042B04D8DFE803F005
:100D5800181010181800012954F8043B4FF000022D
:100D680014D00229CDE90E32CCD19BB20E93C9E73B
:100D7800073424F00704F4E80223CDE90E23C1E781
:100D880054F8043B0E9300230F93BBE7DBB2CDE787
:100D9800042B08D1073424F00704D4E900230834CD
:100DA800CDE90E23AEE7032BACD154F8043BDDE7C5
:100DB8009DF843007828B4D862281CD825283FF429
:100DC800ADAD5828ADD10DF136030093DDE90E0124
:100DD80008AB10AA03F0CDFCBAF1000F074680F269
:100DE8009A80002F9DD00DF13603D81B002E00F0FD
:100DF800C1800130BEE06338152892D801A252F8AC
:100E080020F000BFE10E0000F30E00002B0D0000E3
:100E18002B0D00002B0D00002B0D0000F30E000021
:100E28002B0D00002B0D00002B0D00002B0D0000DA
:100E3800810F0000190F00003F0F00002B0D00006C
:100E48002B0D0000650E00002B0D0000190F00008F
:100E58002B0D00002B0D0000190F0000BAF1000F38
:100E68000E9F35DB5146384603F0F9FC07EB000AC4
:100E7800002F3FF456AF00269DF8423013F01002C1
:100E8800059200F0938002305B06119A48BF129BCE
:100E98000492104448BFC018B8F1000F40F3A08076
:100EA8009DF84020A8EB0008C2F380035007069382
:100EB80000F19680510640F189803EB1594630468E
:100EC800C84700287FDB069B01351E4630227EE09E
:100ED800384603F0BDFCC9E70E9B8DF8203000268C
:100EE80008AF0DF1210A0120C6E719075CBFC3F35B
:100EF80000135E01DDE90E2348BF2B26002BBFF649
:100F080062AF524263EB4303CDE90E232D265AE725
:100F1800002658E700269DF840200DF13603DB1B1C
:100F28006FF386129A458DF840207FF65AAFAAEBE8
:100F38000303119355E70E9890B30DF13603009310
:100F480010AA08AB002103F014FCBDF8423003F0EE
:100F5800EF0343F4F04343F01003BAF1000F0746E0
:100F6800ADF84230D6DA00283FF4DBAE0DF1360397
:100F7800181A00269A467FE70E9B07293FF6D1AE3E
:100F8800DFE801F00C04060C08080C0C1D70C8E61C
:100F98001D80C6E6EA17C3E90052C2E61D60C0E636
:100FA8002E4F064607F1050A052065E71A0748BFD0
:100FB800013069E70793104606925946C84700284A
:100FC800DDE9062304DA15B0BDE8F08F2022434698
:100FD8001946002903F1FF33ECDC45446D1A9846A5
:100FE8002EB159463046C8470028ECDB01359DF83C
:100FF8004230DA0601D41B0705D559463020C847C8
:101008000028E0DB0135059B33B19DF843005946C4
:10101800C8470028D7DB0135049E2E4405E0594611
:101028003020C8470028CEDB0135731B002BF6DCC7
:1010380053463A465946484603F0E1FB0028C2DBCE
:101048000544A844A8EB0503002B7FF76AAE594670
:101058002020C8470028B6DB0135F3E73A560000E0
:1010680001F0B4BC2DE9F84305464FF02003EFF337
:10107800118683F31288BFF36F8F0E4B0E4F1C68D7
:10108800DFF838804FF00C092CB986F31188BFF3CC
:101098006F8FBDE8F883D4E90123002D18BF1346EC
:1010A8002BB198F8142009FB02F2B85C9847246821
:1010B800EAE700BFA0020020940200206803002095
:1010C80070B5194B1C7DBFF35B8F04F01F03012221
:1010D8009A40164B610903EB8103D04353E8001F84
:1010E80001EA000543E80056002EF7D1BFF35B8FF5
:1010F8000A4213D00E4B0F4D8BB10C236343EA18F1
:10110800E85C517803F0E7FB0020FFF7ABFF0C2306
:101118005C432A1900232B51C2E9013370BD83F3C4
:101128001188BFF36F8FEFE768030020A802002043
:10113800DF480000940200202DE9F041354B0746B6
:101148001D7D4FF02003EFF3118883F31288BFF35E
:101158006F8F0C24304B314E6C431A19195D0029DE
:101168004CD007CA06EB040C8CE8070000221A557D
:1011780088F31188BFF36F8F0C236B43F218F05C70
:10118800002839D07B1C10D0D2F808C0244C254A3E
:101198004FF400400021ECFB004100232046FEF7FD
:1011A80087FF0121381A04F090F802F0FBFE0120B5
:1011B800FFF758FFBFF35B8F1B4B6A0903EB8203F2
:1011C80005F01F0101228A4053E8000F104343E84D
:1011D80000010029F8D1BFF35B8F144B3BB10C23FE
:1011E80003FB05F03318305C597803F068FBFFF710
:1011F80067FF02F0EBFE0120BDE8F08101462846BA
:1012080000F016F80028B3D007C8344484E8070073
:10121800AEE700BF68030020880200209402002087
:101228003F420F0040420F00A8020020C7480000BC
:101238002DE9F04F85B00E4603A900F043F81E4B88
:10124800039DD3F800A0DFF87480431E1BB203EBA4
:101258004303044605EB83054FF400474FF0000BAA
:1012680024B9A146484605B0BDE8F08F6868144A1D
:10127800C4465946E0FB07C100236046FEF718FF45
:101288000190A8680E4AC4465946E0FB07C10023EE
:101298006046FEF70DFFBAF1FF3FA94601D082452F
:1012A80005D9731CDED0019B1844B042DAD9013C41
:1012B800A4B20C3DD4E700BF040000203F420F0059
:1012C80040420F0008B9024B0B600020704700BF76
:1012D80028550000014910220A60704710ED00E00F
:1012E80072B6404080F31188BFF36F8FBFF34F8F02
:1012F80030BF62B6BFF36F8F704700BF72B6494008
:1013080081F3118820BF80F3118862B6704700BF4F
:1013180040B2002807DB044A4109012300F01F00FE
:10132800834042F82130704700E100E040B20028D5
:101338000CDB4309064900F01F00203301228240DC
:1013480041F82320BFF34F8FBFF36F8F704700BF63
:1013580000E100E0054B420900F01F0053F822208D
:10136800012303FA00F01040704700BF00E100E0DD
:1013780040B20028A8BF00F1604001F10101B8BFE8
:10138800064B4FEA4111ACBF00F5614000F00F0079
:10139800C9B2B4BF195480F80013704714ED00E0C7
:1013A80030BFFFF7FDBF00BF08B5084B084A23F060
:1013B8007F039360BFF34F8FBFF36F8F02F08CFAF8
:1013C80002F02EFF00F0C8F902F0CAFA000000008F
:1013D80000ED00E0094A0A499368096899670949D4
:1013E80058674B6843F080534B60002383F31188A0
:1013F800BFF36F8F9368986F704700BF6803002032
:101408003056000000ED00E012498A684FF03000C5
:101418001044EFF3098C80E8F01F202080F3128835
:10142800BFF36F8F0C4F4FF00066CA698A603E6049
:10143800506F0023536780F3118804B5104600F0FD
:10144800D1F9BDE8044002F1300090E8F01F8CF3B8
:10145800098870476803002004ED00E01EF0040FBF
:101468000CBFEFF30880EFF30980816911F8021CC3
:101478000229FFD001B503F0DCF901BD42F8203C98
:10148800009B42F81C3C0A49019B42F8183C029B0D
:1014980042F8143C21F001014FF0807342F8043CFB
:1014A80042F8081C0023203A02654367704700BFD2
:1014B80067470000094A0346906870B113F1160F98
:1014C800406E05D0A0F140029A4205D8834203D26B
:1014D800814228BF00207047002070476803002021
:1014E80008B5094B0D461446986000F07BF9204674
:1014F80085F30988002163B681F31188BFF36F8FE4
:101508000022002303F02BF96803002001B572B60E
:101518000B4A906900281EBF0021916103F00AFE62
:1015280062B6EFF30580A0F110004FEAC00005494C
:10153800014409C99847BDE801400349084700002C
:1015480068030020B453000055150000044B996847
:10155800D869884203D003494FF080520A60704727
:101568006803002004ED00E070B5184B14469A6A31
:101578009A6A9A6A9207064619D5586B9A6A1506A6
:1015880015D519B19A6A22F080029A629A6A9A6A03
:101598000E4D12F0100F0DD19B6A9A070AD4002045
:1015A800AB6A43F0FF03AB620023237070BD6FF09A
:1015B8001500EBE76B681B05F1D53146FFF77AFF9D
:1015C8000028ECD080F309880220E9E700ED00E06C
:1015D8000B4B9A6A9A6A9A6A920508D59A6B9A6A24
:1015E800120404D518B19A6A22F400429A629A6ADF
:1015F8009A6A9A6A002042F47F429A620870704799
:1016080000ED00E070B54A4B5B688AB00546C3F34D
:101618000803002686F31188BFF36F8F02F07F401E
:10162800B0F17F4F11D102F00C0008280DD010073F
:101638004CBF0D4601260022033B8DF80720032BE3
:101648004DD8DFE803F00465696D3546F3E7384B9C
:10165800DA6A910743D4DA6A002A40DBDA6A520070
:101668003DD55A69A96942F480725A61BFF34F8F18
:10167800BFF36F8F5A6931F8021C22F480725A61E5
:10168800BFF34F8FBFF36F8F4DF60272914209D0AF
:101698009A6AD2B242B10DF1070201212846FFF73A
:1016A80063FF0AE02C681BE09A6A12F47F4F06D0A9
:1016B8000DF107010120FFF78BFF044610E09A6A3D
:1016C800B2F5803F0BD39A6A9A6A9A6A9A6A9A6ABA
:1016D8009A6A9A6A6FEA02426FEA12429A62002490
:1016E8009DF8073093B92022294602A803F0C0F8D4
:1016F800099BBEB1C3F3080222B96FEA53236FEA0C
:101708004323099302A9204603F091F80AB070BD5B
:101718000DF107020021C1E70DF107010020CAE71A
:10172800034BD0E723F4FF7323F00103E9E700BF7D
:1017380000ED00E0024A536943F01003536170471B
:1017480000ED00E0EFF30880EFF3098101B5724680
:10175800FFF758FF01BD00BF044800232021C2182D
:1017680001331E2B82F80013F9D1704700E100E025
:10177800FFF776FC202080F3118808484FF40461B5
:10178800401880F30988EFF314800221084380F39E
:101798001488BFF36F8FFFF707FE0000C003002017
:1017A800084B9B6883420BD1EFF3058343B1064B8B
:1017B8005A6842F080525A605A6A22F400425A62C9
:1017C80002F0CEBC6803002000ED00E0024B034AA3
:1017D8000348012100F070B80060002000000020DC
:1017E80028550000426E054B403A1A60044A4021D1
:1017F800C3E901121846012100F068B8AC020020C4
:1018080000000B15F0B5204E00258D4239DA4468EA
:1018180074B353B104F1FF3C14EA0C0F2FD11F2C01
:101828002DD907681CEA070F29D1202C0768D0F8A2
:1018380008C05FFA82FE1ED9B4F1004F1DD8013CE2
:10184800B4FA84F4C4F11F046400BEF1070F4CEA33
:10185800040C14D827F01F04144344F01004C6F8ED
:101868009820C6F89C404CF00104C6F8A04001320C
:1018780001350C30C9E70824E7E73E24E5E76FF0B7
:1018880015021046F0BD00BF00ED00E0044B052234
:10189800C3F89420BFF34F8FBFF36F8F704700BF1B
:1018A80000ED00E0BFF35F8F024B0022C3F89420E5
:1018B800704700BF00ED00E010B5034C012322780B
:1018C800FFF7A0FF207010BDA003002008B5094A4B
:1018D80000231278FFF796FF10F1160F02D0064A80
:1018E800072800DD08BDC2F89800C2F8A030013012
:1018F800F6E700BFA003002000ED00E014490868E7
:10190800082810B521D8FFF7CDFF124C49680022EE
:10191800904201F10C0105D10F4B1870FFF7B6FF8B
:10192800002010BDC4F8982051F80C3C23F01F0388
:10193800134343F01003C4F89C3051F8043C43F0BF
:101948000103C4F8A0300132E2E74FF0FF30E8E7C6
:101958003455000000ED00E0A003002020B1034B47
:10196800800143F001031847704700BFD0540000BE
:10197800084B70B5C31A0D4607499B1004465943D6
:101988000648402202F0C9FF2B4601462046BDE822
:1019980070401847CC020020B76DDBB654530000E6
:1019A80073B50C4C0C4A4023041B00930D460B46A0
:1019B8000A49A41061430646094802F0DBFF011EEC
:1019C80005DA30462B4602B0BDE87040184702B031
:1019D80070BD00BFCC020020E9490000B76DDBB63E
:1019E80054530000002270B5012104461046FFF749
:1019F800BFFC0F4801F010FA0E4B984215D103F0C6
:101A0800D1FA26690C49304602F03EFE00280BDB6D
:101A1800012535642469084904F11C0002F034FEEC
:101A2800002801DBE564002070BD6FF00400FBE7CF
:101A3800791A00000000AD0B5455000070B501463E
:101A48000C2309484B43C418D4E90E5640330022EE
:101A58001844A26302F04EFF2DB132462B460348CC
:101A6800BDE87040184770BDCC02002054530000F8
:101A780010B1012804D07047034B1B6C5B0701D1E0
:101A8800FFF7DCBF704700BFCC02002008B54FF05D
:101A98002003EFF3118183F31288BFF36F8F124A8B
:101AA800136843F002001060DA0708D481F3118844
:101AB800BFF36F8F0120BDE8084003F080BA4FF0F4
:101AC8008043D3F80C24D3F80C34D307EED5074859
:101AD80002F010FF81F31188BFF36F8F0020BDE87B
:101AE8000840FFF7ABBF00BF1C0300200C03002019
:101AF8001FB500220123CDE90223094ACDF800D001
:101B08006B46CDF804D002F064FF002805DB4FF4E3
:101B180080420023684602F055F805B05DF804FBE2
:101B2800074A0000094BBFF35B8F53E8002F22F0F0
:101B3800020143E800100028F7D1BFF35B8FD307F9
:101B480002D4012003F077BA704700BF1C030020BD
:101B58002DE9F0413849BFF35B8F0746012251E870
:101B6800003F41E800200028F9D1BFF35B8F33B96B
:101B7800324933484B60CB608A6002F098FD7B1E87
:101B8800012B2BD8012F07D14FF08043D3F81C34F9
:101B980003F00303012B21D003F0C6FA0546F8B978
:101BA800284B1B78E3B14FF080430222C3F8082387
:101BB8000646DFF894804FF08044D4F81834D4F8FF
:101BC8001824D20316D503F00303012B01D0012FEB
:101BD80010D15DB386F31188BFF36F8FBDE8F08134
:101BE8004FF02003EFF3118683F31288BFF36F8F52
:101BF8000125DEE7ADB13046FFF780FBD4F8183594
:101C0800002BDAD1D4F80421002AD6D0C4F8043144
:101C1800D4F804310123C4F81835C8F88031A3601A
:101C2800CBE70021212002F07BFAE7E74FF0804361
:101C38000222C3F80423D1E7C8020020B80200201A
:101C4800E8020020A103002000E100E030B5406870
:101C5800057B01F01F04B2F5001F85B044EA451466
:101C680005D1204601F054FB002005B030BD002509
:101C7800B2F5800FCDE9025514D1B3F1007F0CBF46
:101C8800042305238DF808300023194602AA2046AC
:101C980001F074F91D4B984235D10121204601F01D
:101CA800F3FAE1E7B3F1C06F22D0B3F1007F14BFBC
:101CB800012302238DF808308368CB40D907E3D489
:101CC800B2F1A07FE0D104F01F0303F5E0734FF0F9
:101CD800A04252F82330DB07D6D40DF10705294678
:101CE800204601F07DFA0A4B984203D00395CBE7D2
:101CF8000323DFE7284601F0C1FA044B9842F5D0E8
:101D08006FF00B00B1E76FF01500AEE70000AD0B08
:101D18000400AD0B10B501F0A1FA044668B901F052
:101D280075FA084B98420AD10748214601F052FA41
:101D3800224605210620FFF71BFB002010BD6FF08F
:101D48000400FBE70000AD0B551D0000430970B50A
:101D580007D10B4B596821B101250C68094E854004
:101D680001B970BD8A682A4002D04B68304698474E
:101D78001CB1236821461C46F2E72346FAE700BF58
:101D8800200300206C5300002DE9FF4147683B7B8E
:101D980001F01F0545EA43150E4628460DF10301DB
:101DA800144601F01DFA14F4403F80460BD1284632
:101DB80001F0D6FA3D4B984503D19DF8030001F098
:101DC80057FA00200CE00023194602AA2846CDE95C
:101DD800023301F0D3F8354B984204D06FF0150068
:101DE80004B0BDE8F081804503D19DF8030001F0FF
:101DF8003FFAA3034BD540F206332340B3F5837F64
:101E080019D00CD8062B17D004D8ABB1022BE5D1CA
:101E1800042311E0B3F5807FE0D101230CE040F208
:101E28000222934227D0B3F5407F26D0B3F5007F36
:101E3800D4D1022300E007238DF8043084F48033E2
:101E4800C3F30043E0068DF8053054BFC4F34013D4
:101E5800032321038DF8063011D57A680123B34096
:101E6800C2F80835002201A9284601F035F90F4BC0
:101E78009842A6D0B2E70523DEE70323DCE7620336
:101E880041BF01237A68B340C2F80C35EAE7E3069C
:101E98004FF0000354BFC4F3401403241A4601A9A9
:101EA80028468DF8044001F069F8E0E70000AD0B22
:101EB80030B5034685B01D694068AA6C2B6D2ABBF6
:101EC8008BB3696CAB6514461A46CDE90014E96C0E
:101ED800029131B3002B18BF1346002269460393C1
:101EE80001F00AFC114B98420ED06FF00404002256
:101EF8001146284602F008FE2C6305F1200001F087
:101F080041FE002385F85C3005B030BD696C13B123
:101F18009A4228BF1A460029AA6514BF144600240D
:101F2800D3E70B46D9E71C46E1E700BF0000AD0B3D
:101F38002DE9F04F99468B8804698046980489B04A
:101F48000E46924600F1C7804FF0FF324FF0FF3344
:101F580004F1100001F036FE6660D8F810B0D8F829
:101F6800043000939BF85D3001931BB1DBF800301F
:101F78009E425FD0B788390500F1DC8017F0090F61
:101F880040F0D580C7F34513082B40F0D080356862
:101F9800744B9D4240F2CB80009B03F1080EBEE8D3
:101FA8000F000DF10C0CACE80F00DEF80030CCF897
:101FB80000306D4B9D4240F297806C4B9D4240F241
:101FC80096806B4B9D4240F295806A4B9D4240F251
:101FD8009480694B9D4240F29380684B9D422CBF90
:101FE8004FF000454FF08045BA07059507F0040308
:101FF80040F18980002B14BF032302238DF8183089
:10200800019BC7F300178DF819702BB1009801F0E8
:1020180021FB00238BF85D305B46594A009803A9E1
:1020280001F06AFA574B984271D101238BF85D3061
:10203800CBF80060012384F85C30BAF1000F7CD142
:10204800C4F834A00023A36304F1480204F1380162
:1020580004F1340002F031FD6064B9F1000F75D16C
:10206800C4F83C900023236404F1500204F14001B9
:1020780004F13C0002F021FD00263246E064012113
:102088002046266302F040FD4046FFF711FF256D0C
:10209800A36C27469D4238BF1D464FF4FA535D4353
:1020A80057F8203B4FF4004C1B68B5FBF3F531465D
:1020B800C83540F2E7304FF47A720023E5FB0C0193
:1020C800FDF7F6FF02460B46384601F07BFD002877
:1020D80044D1256B1DE0A369002B7FF435AF6368FD
:1020E80099427FF431AF38E74FF000757CE74FF045
:1020F800806579E74FF0006576E74FF0805573E724
:102108004FF0005570E7003B18BF012376E76FF0EA
:10211800040523689B8813F4005304D1636004F119
:10212800100001F02FFD284609B0BDE8F08F6FF0D0
:102138001505EEE76FF08505EBE7DAF80030636325
:10214800002B3FF47FAFDAF804307CE7D9F8003091
:10215800E363002B86D0D9F8043084E76FF0730569
:10216800D7E700BF47E801008FD003001FA1070091
:102178003F420F007F841E00FF083D0000127A00D6
:10218800454C00000000AD0B2DE9F04F98468B88B8
:10219800476804699346DA078DB00E4600F18281DC
:1021A80013F0100940F07E81C3F34513102B00F2A1
:1021B80079815A1E48BF9A1DD21001326365E265C3
:1021C8000A68CAB1AE4BB3FBF2F35B10A365266095
:1021D800B38813F4006FBB6823D0002B00F065812F
:1021E800BBF1000F0AD0B8F1000F40F05E8107F193
:1021F80008030093454688E00423E7E7B8F1000F99
:1022080000F0868007F10805CDF800B04FF4803162
:1022180007F1080002F055FD002809DA0DB0BDE805
:10222800F08F3D690093002B69D10DB107F11005BE
:1022380094F85CA0BBF1000F6DD1C4F834B0002352
:10224800A36304F13403069304F13803079304F1FC
:102258004803089304F14802534604F1380104F195
:10226800340002F062FD6064B8F1000F5BD1C4F87D
:102278003C8004F13C03099304F140030A9304F100
:1022880050030B9304F15002534604F14001C4F883
:10229800409004F13C0002F048FD4FF00008E06473
:1022A800C4F83080B38803F002020492C3F34002FA
:1022B8000292029903F00402384603F008030393DC
:1022C800059202F048FD42460121204602F09DFD9C
:1022D800A36D0193636C0BB1A26C72BBE26C0AB183
:1022E800226D42BB002211462046002502F08DFDDA
:1022F800256304F1200001F045FC28468EE707F12C
:10230800080300930DB107F110054FF4B0117FE7F2
:10231800CDF800806EE7DBF800306363002B8ED0C9
:10232800DBF804308CE7D8F80030E363002BA0D04A
:10233800D8F804909DE7A26CE2B1E26D012A16D0AC
:10234800022A17D1B3F80090636D03F1FF3A002D0C
:1023580000F09180E36C002B00F08F80236DB3F1C7
:10236800000818BF4FF001084FF0000B3DE093F84C
:102378000090E9E74FF00009E6E7009B49FA0AF602
:1023880006F001061BB13146184602F0E4FC01983C
:1023980002F0BBFF049BB3FA83F14909384602F007
:1023A800DAFC039B3BB1019802F0AFFF0299384673
:1023B80002F0D1FC10E0B8F1000F53D0059B002BC0
:1023C8004BD0019802F0A1FF0299384602F0C3FCF5
:1023D800284602F095FC0646003E18BF012646EA4C
:1023E8004B061FFA86FB0AF1FF3ABAF1000FC4DA6E
:1023F800E36C43B1226D32B1E26D012A42D0022A68
:1024080001D1A3F800B0A36C94F85C6083B1013BE0
:10241800A364002B39D1636B069808336363A36BFD
:10242800013BA363DDE90712334602F07EFC6064DA
:10243800236D002B3FF44EAF013B23655BBBE36B81
:1024480009980833E363236C013B2364DDE90A122E
:10245800334602F06AFCE0643CE7284602F050FC90
:102468000646A0E7019802F050FF0299384602F0AC
:1024780072FC4646B0E7A84676E7984674E700BF80
:1024880040420F0083F800B0BDE7636C002BCFD04B
:1024980033446364CCE7E36C002B3FF41BAF334455
:1024A800E36417E76FF08500B8E66FF01500B5E64E
:1024B80070B5012383400E4ABFF35B8FDC4352E8BB
:1024C800001F01EA040542E80056002EF7D1BFF3C9
:1024D8005B8F4FF4803282400648C0F80823BFF370
:1024E8005F8FBFF36F8F0B4214BF0120002070BDB8
:1024F8003003002000100140F8B51B49044622F0C3
:102508007F450868C1E90023A5F50013101AB3F543
:10251800400F0FD301F06AFFA30003F1804303F5D6
:102528008833D3F8402595421DD14FF40002C3F8F3
:10253800402512E00D4B1B681A0A1B065E190C4B4E
:1025480042F10007C3E9006701F050FF094A04F5AA
:10255800A87352F823309D4205D1064A4FF48033C0
:10256800A340C2F84433F8BD7001002034030020B2
:10257800780100200010014011B3BFF35B8F0123E5
:10258800104A834052E800CF4CEA030C42E800C1ED
:102598000029F7D1BFF35B8F0B4A4FF48033834098
:1025A800C2F80433094BBFF35B8F1B68BFF35B8F23
:1025B800C340DB0742BF064B4FF40032C3F800218B
:1025C800704700BF30030020001001402C0300209A
:1025D80000E100E00D4B1868010A0006BFF35F8FA9
:1025E8000B4BD3F80435181841F10001B3F5801FDF
:1025F8000AD2084BD3E90023904271EB030303D2BC
:1026080010F1807041F10001704700BF34030020D1
:1026180000100140780100202DE9F74F14461D46AF
:102628000746FFF745FF0090FFF7D4FFA04271EB84
:1026380005037AD2464B201A65EB0101984271F1E5
:10264800000180F08180434B03EB0713D3E9022399
:102658009D4208BF944253D04FEA870A0AF1804A44
:1026680007F150090AF5883A4FEA89091FFA89F9EA
:1026780024F07F4809F180494FF48033DAF84005A7
:10268800354A09F58839BB404646D2F804B5A0EB6F
:102698000B0020F07F402BF07F410128CAF840153D
:1026A80005D10193132002F030FE2B4A019B0BF158
:1026B800020CA6EB0C0020F07F40B0F5000F88BF9D
:1026C80066460020C9F80000D9F80000C2F8443373
:1026D80026F07F40CAF84005D2F80405834506D0A5
:1026E800301A023820F07F40B0F5000F1BD8A6EB57
:1026F800080626F07F46361945F1000334461D4684
:1027080014490C983B0101EB0712C8500D9B53600C
:10271800C2E90245002438460099FFF72DFF2046FC
:1027280003B0BDE8F08F3046AFE701230B4ABFF393
:102738005B8FBB4052E8000F184342E800010029B4
:10274800F8D1BFF35B8FDBE76FF01504E3E700BF59
:102758000100000160010020001001402C0300204E
:1027680073B5194B194D00244FF0FF304FF0FF316E
:10277800C5F80845C3E902014FF48033C5F80433AE
:10278800134B02264FF400320121C5F804631120CF
:10279800C3F880212246FEF7EBFD1120FEF7B8FDB5
:1027A8000C4A0123AB602B6013600B4B0B4A009360
:1027B800019400232046FFF72FFF3046FFF7C8F9A2
:1027C800204602B070BD00BF60010020001001402B
:1027D80000E100E03003002001250000FFFF7F003A
:1027E8002DE9F743334CD4F804339A070BD5D4F8C2
:1027F800043143B1304A0023C4F80431D4F8043119
:102808001368013313604FF02003EFF3118283F351
:102818001288BFF36F8FD4F80433DB0329D5BFF3D5
:102828005B8F264B53E8001F21F0010043E80005A9
:10283800002DF7D1BFF35B8F11B9D4F84031C3B184
:102848000025C4F84051D4F8403182F31188BFF311
:102858006F8FFFF7BFFE4FF02003EFF3118283F372
:102868001288BFF36F8F164BD3E90267B042B941A4
:1028780006D282F31188BFF36F8F03B0BDE8F083EF
:102888004FF0FF384FF0FF39D3E90010C3E9028950
:102898001D604FF48033C4F8483382F31188BFF3C6
:1028A8006F8F0029E9D0009032463B46284688477A
:1028B800E3E700BF00100140340300202C03002090
:1028C80060010020431C13B521D0012821DDB0F59B
:1028D800000F20DA441EFFF77DFE104BD3E90013EA
:1028E800421AB2F5000F0E4828BF002401322244D4
:1028F800824228BF024652184FF000000949019051
:10290800009143F10003FFF787FE02B010BD0448B1
:10291800E0E70024DFE7024CDDE700BF700100209C
:10292800FFFF7F000125000008B5FFF753FE024BAB
:102938001B68C01A08BD00BF70010020BFF34F8F8D
:102948000549064BCA6802F4E0621343CB60BFF343
:102958004F8F00BFFDE700BF00ED00E00400FA055F
:102968004FF0704393F8E02F062A09D1D3F8E83FD7
:10297800C3F30313033B042B02D8024AD05C70470D
:1029880000207047925600004FF08053D3E94C2343
:10299800062A05D1033B042B0AD8064AD05C7047A7
:1029A8000A2A03D1022B03D8034AF7E7002070470D
:1029B800012070478356000080560000024AD2F872
:1029C8000034002BFBD0704700E0014010B54FF0F9
:1029D8008053D3F830315A1C04BF4FF0704393F83A
:1029E800E03F062B08D14FF08053AD4AD3F824338B
:1029F800C3F30423C2F84035FFF7B2FF10B1A94B67
:102A0800A94A5A6702F0B8FA48B14FF080534FF01C
:102A18008042D3F84432C3F34233C2F83C35FFF75F
:102A28009FFF30B1A14AD2F8FC3023F08073C2F87E
:102A3800FC3002F0A1FA40B14FF080430022C3F805
:102A48000C21C3F81021C3F83825FFF789FF20B1FE
:102A58004FF080430322C3F8A025FFF781FF60B140
:102A6800934B0522C3F810260122C3F888260022BA
:102A7800C3F818263F22C3F814264FF08053D3F822
:102A88003021541C09BF4FF07043D3F8343193F808
:102A9800E02FD3F8E83F08BFC3F30313062A4ED14B
:102AA800033B042B03D8834AD35C002B49D04FF057
:102AB8008052814BD2F80414C3F82015D2F80814B8
:102AC800C3F82415D2F80C14C3F82815D2F810143A
:102AD800C3F82C15D2F81414C3F83015D2F818140A
:102AE800C3F83415D2F81C14C3F84015D2F82014D2
:102AF800C3F84415D2F82414C3F84815D2F828149A
:102B0800C3F84C15D2F82C14C3F85015D2F8301469
:102B1800C3F85415D2F83414C3F86015D2F8381431
:102B2800C3F86415D2F83C14C3F86815D2F84014F9
:102B3800C3F86C15D2F84424C3F8702501E00A2ABA
:102B4800B5D04FF08053D3F83031581C04BF4FF044
:102B5800704393F8E03F062B09D14FF080534FF0B4
:102B68008042D3F8583203F04F03C2F8E43E02F033
:102B780003FA48B14FF08043D3F80024D10744BF8B
:102B88006FF00102C3F800244FF08053D3F83021CE
:102B9800062A0ED1D3F83431033B042B02D8474A16
:102BA800D35CD3B1464AD2F83C3743F48063C2F8C9
:102BB8003C374FF08053D3F830210A2A0DD1D3F88F
:102BC8003431022B09D8DA0741BF4FF08042D2F8DE
:102BD800E43E43F00F03C2F8E43EFFF7D5FE38B3F6
:102BE8004FF010214FF08043D1F80822C3F8582540
:102BF800FFF7CAFEE0B1D1F80031013303D0D1F8B4
:102C08000431013314D12F4801234FF01024C0F8A8
:102C180004350021FFF7D2FEC4F80011FFF7CEFEFD
:102C2800C4F80411FFF7CAFEC0F80415FFF7C6FE82
:102C38004FF01021D1F80032002B03DBD1F8043219
:102C4800002B17DA1F4901234FF01020C1F8043573
:102C58001524FFF7B3FEC0F80042FFF7AFFEC0F837
:102C68000442FFF7ABFE0023C1F80435FFF7A6FEC8
:102C7800FFF764FED1F80C32DB070DD511480123AC
:102C8800C0F804350024FFF799FEC1F80C42FFF79D
:102C980095FEC0F80445E9E70B4B0C4A1A6010BDD5
:102CA8000030014000C007400DF0ADBA00ED00E073
:102CB800005000408D56000000C0004088560000BB
:102CC8000010004000E00140E80000200090D00320
:102CD80070B501250268BFF35B8FB2FA82F3C3F1C6
:102CE8001F03DBB205FA03F422EA040450E8006F7C
:102CF800964204D140E8004CBCF1000FF6D1BFF376
:102D08005B8FE7D101480B7070BD00BF0000AD0BB1
:102D180010B50368CB40DB0714D401238B4002684D
:102D2800BFF35B8F43EA020150E8004F944204D19D
:102D380040E8001CBCF1000FF6D1BFF35B8FEED169
:102D4800014810BD0148FCE70000AD0B0400AD0BC5
:102D5800F7B5044618B1012822D003B0F0BD4FF0F2
:102D680080430222C3F80823C3F80401D3F80421DE
:102D78000122DA60074601238DF8073042F2107508
:102D88004FF08046CCB1012CE7D1C7B3D6F80C344C
:102D980003F001033B70D6F80C34DA0321D516E0B2
:102DA8004FF080430022C3F80803C3F80021D3F88A
:102DB800002158600DF10707DDE7B7B1D6F81834E0
:102DC80003F003033B60D6F81834D803C5D59DF843
:102DD8000700012803D102F0E3F8013DD2D1012C0C
:102DE800BBD10C4B00225A71B7E7D6F81834D90377
:102DF800B3D5012002F0D4F8013DF6D1ADE7D6F8FD
:102E08000C34DB03EDD5012002F0CAF8013DF6D100
:102E1800E7E700BF38030020044B1A7922B90122E2
:102E280018609A80024870470248704738030020AB
:102E38000000AD0B0C00AD0B10B54FF08043D3F87C
:102E480000216AB10022C3F80021D3F80021012231
:102E5800C3F80823114B587910B95A711B68984761
:102E68004FF08043D3F8042172B10022C3F8042143
:102E7800D3F80421D3F81824D3F81814920704D1EE
:102E88000122C3F818259A6010BD0222C3F808234E
:102E9800024BBDE810401B6801201847380300208A
:102EA800034B083033F81000C0F34010704700BFE0
:102EB800EC00002070B500F108030C4C34F8133016
:102EC800DA0505460E4607D5C3F3432304EBC302D0
:102ED80054F8333052689847A3682BB1E2683146FA
:102EE8002846BDE87040184770BD00BFEC000020C0
:102EF80010B4124A083032F81030D9051BD5C3F384
:102F0800432123F4F85322F8103002F10E04002074
:102F180034F8023F13F4807F03D0C3F3432399426C
:102F280009D001302028F3D1002342F83130044879
:102F380010BCFFF7EDBE10BC704700BFEC000020CE
:102F48004001002038B50246FFF7AAFF094C02F1FC
:102F5800080540B134F8153007495B0B03F5A27337
:102F6800002041F823001046FFF7C2FF002324F891
:102F7800153038BDEC000020006000402DE9F34119
:102F880004461D4609B34F4F00F1080837F818608A
:102F9800B30706D5FFF784FF18B14B4802B0BDE868
:102FA800F08104F01F039B0003F1A0430978D3F8D4
:102FB800000726F0020620F00F0046F0010640EA5E
:102FC800810127F81860C3F800179AB13D4B1778AC
:102FD800506804F1080633F8161011F0020F0DD0EE
:102FE8000028DAD133F8162022F01C0242EA8702C0
:102FF80023F81620002D3BD13448CFE721F02001DB
:10300800C904C90C23F816100028EBD0032FC4D824
:10301800526892F800C02FB92D4A0CF5A27C42F8EC
:103028002C70DFE74FEA8C0202F1804202F5C042C1
:1030380041EA4C31D2F8100520F00300C2F810051F
:10304800D2F8100520F4473020F44070C2F810057B
:103058002002D2F810E500F4F85040EA074040EAB0
:103068000E0041F0200123F81610C2F81005B9E748
:10307800D5E900672046FFF73BFF002EBCD0114D75
:10308800D5E90023964201D19F4219D011480DF18C
:103098000701FFF71DFE0D4B98427FF47FAF9DF8A7
:1030A800072045F8326005EBC20308345F6035F845
:1030B800143043EA422343F4807325F814309BE725
:1030C8000022EEE7EC0000200400AD0B0000AD0B81
:1030D8000060004040010020F8B5044689B33A4E2C
:1030E80000F1080736F81750AB0704D4FFF7D8FEED
:1030F80008B13648F8BD15F01C0F4B7824D104F000
:103108001F0000F5E07E4FF0A04C5B005CF82EC07D
:1031180091F802E009782CF4E16C43EA8E032CF074
:10312800070C43EA0C0343EA012300F5E0704FF073
:10313800A04143F0010345F0030541F8203026F88B
:10314800175022B92248D5E7012BD8D1D1E71E4E16
:1031580004F1080736F817008307CAD592F800C0AB
:103168006146890020F0200001F18041C00401F58A
:10317800C041C00C26F817000023C1F81035557857
:10318800002DDFD0D1F81035927823F4981323F46A
:10319800F853C1F81035D1F810E5230203F4F853B9
:1031A8002D0443EA0E0305F4403512052B4302F4BF
:1031B800801240EA4C30134340F0200026F81700F4
:1031C800C1F81035BEE700BFEC0000200400AD0BCD
:1031D8000000AD0B014BC3E902017047EC00002071
:1031E80008B50246FFF75CFE38B1054B05480832C2
:1031F80033F812305B0B0B7008BD0348FCE700BFC7
:10320800EC0000200000AD0B0400AD0B38B50F4CEE
:1032180094F85850BDB94022294604F1100001F035
:1032280032FB0620FEF774F8094B0A48C3F87C51B4
:10323800D3F87C214FF00042C3F80423012384F81B
:103248005830636538BD0448FCE700BFEC00002037
:10325800006000400000AD0B0500AD0B034B93F878
:103268005800003818BF0120704700BFEC0000204C
:1032780001460148FFF74CBD3C01002001460148CA
:10328800FFF726BD3C01002010B50246FFF708FEF7
:1032980002F108041C4B33F81430E0B113F00204B7
:1032A80019D15B0B9A0002F1804000F5C24002F18F
:1032B800804202F5C04204600068D2F8100540F070
:1032C8000100C2F8100529B1012202FA03F30F4ADE
:1032D800C2F8043310BDC3F38203042B10D0052BAE
:1032E80010D04FF0A043D3F8101502F01F03D940B7
:1032F80001F001010231BDE81040104601F09DBE09
:103308000321F8E70221F6E7EC0000200060004006
:1033180008B50246FFF7C4FDC0B102F108010E4B23
:1033280033F81130990711D45B0B01229A409B00A6
:103338000A4903F1804303F5C043C1F80823D3F8D1
:10334800102522F00302C3F8102508BDBDE8084087
:103358000021104601F071BEEC0000200060004022
:1033680010B50D4B00F10802044633F81230DB07A4
:103378000FD5FFF7CDFF204604F01F04FFF7E2FD4D
:1033880004F5E0744FF0A043022243F824200348D8
:1033980010BD0348FCE700BFEC0000200000AD0BA7
:1033A8000400AD0B2DE9F74F4F4B5048504900250D
:1033B80001222C461E6836B1D0F8046316421EBF9F
:1033C8001C601E68154304338B424FEA4202F1D158
:1033D800464BD3F87C31BBB14FF0A046D6F8203528
:1033E8000193C6F8203501AF4FF00108019C8CB954
:1033F8003E4BC3F87C41D3F87C31D6F82035019395
:10340800C6F82035002BEED10124002D53D103B08E
:10341800BDE8F08F94FAA4F4B4FA84F4354A04F1C0
:103428000803E00832F813103B5C04F0070208FABE
:1034380002F223EA02033B54A30003F1A049C1F3BB
:10344800820AD9F80027CB06D346C2F3014218D521
:10345800594620465FFA82FAFFF72CFDD9F8003763
:10346800C3F301439A4507D10021204601F0E5FD49
:103478005146204601F0E1FD08FA04F4C6F820455B
:10348800B4E7022A0CD10321204601F0D6FD0AF048
:103498000503012BF0D159462046FFF70BFDEBE75A
:1034A8000221204601F0C9FDBAF1030FF3D0032A27
:1034B800E2D18A45EEE795FAA5F3B3FA83F304FA65
:1034C80003F29B0003F1804303F5C04325EA02059C
:1034D800D3F81005D3F81015C0F30420C1F3014147
:1034E800FFF7E8FC91E700BF006100400060004082
:1034F80020610040EC000020F8B50679524C4FF0EE
:10350800280C0CFB06FC04EB0C073D7F002D40F05B
:103518009880056844F80C207B60CB7B87F82530C1
:10352800CB78BB774B79FB77CB7B002B49D10F78D6
:10353800012307F01F07BB400F7B012F4FF0A04767
:103548004FF0A04C94BFC7F80C35C7F808350B7876
:1035580003F01F0303F5E07301274CF823704B7841
:10356800FF2B0CD003F01F039F40CCF80C754B7851
:1035780003F01F0303F5E07303274CF823708B78DF
:10358800FF2B09D08F7B03F01F0303F5E0734FF087
:10359800A04CBF004CF82370CB78FF2B11D001272B
:1035A80003F01F0307FA03F34FF0A0474FF0030C93
:1035B800C7F80835CB7803F01F0303F5E07347F825
:1035C80023C00B7C9BB94B7891F800C0FF2B18BF28
:1035D8001F468B78C5F808C508BF4FF0FF37FF2B8B
:1035E80008BF4FF0FF33C5F80C75C5F810358B6868
:1035F800C5F824354B7B0F7B003B18BF0123022FF6
:1036080019D0032F1AD0012F01D143F00203C5F8B6
:1036180054350123C5F8003522B1006840F307305E
:10362800FDF776FE282303FB06440023637707484B
:1036380001232377F8BD43F00403E8E743F00603CA
:10364800E5E70348F6E700BF400300200000AD0BA4
:103658000500AD0B70B50679264C05682823734321
:10366800E35833B145F30730FDF760FE0423C5F88E
:1036780008330023C5F80035282303FB064393F8D5
:10368800253083BBD5F8083503F01F034FF0A0425F
:1036980003F5E073022142F82310D5F81035581CC1
:1036A8001EBF03F01F0303F5E07342F82310D5F89B
:1036B8000C355A1C08D003F01F0303F5E0734FF0D4
:1036C800A042022142F82310282303FB06439B7FD4
:1036D800FF2B08D003F01F0303F5E0734FF0A0425F
:1036E800022142F82310282303FB064400232377F2
:1036F80070BD00BF400300202DE9F8430779414E13
:1037080028237B439446F2180D46517F86460029AC
:1037180076D156F80380B8F1000F01D00123537712
:1037280095E80F00282404FB076404F10C0989E8D4
:103738000F00002384F82430A37FFF2B08D0012238
:1037480003F01F0302FA03F34FF0A042C2F80C354E
:103758002823BCF1000F06D003FB076300222A4888
:103768005A77BDE8F883DEF8004003FB07630422BC
:10377800C4F80823C3F820C0C4F808C1D4F8082145
:103788006A6892B12B681B78C4F81C356B68012BEA
:103798000DD92B685B78C4F81C35B8F1000F0ED032
:1037A8000423C4F804331948DBE7DB7FECE7EB6854
:1037B800012BF2D9282303FB0763DB7FEBE707EB39
:1037C800870106EBC101D4F80831002BFBD0C4F8FF
:1037D80008812046D4F8083101F03DFC0028F2D1D8
:1037E800282303FB0766B37FFF2BDCD0012203F0FD
:1037F8001F0302FA03F34FF0A042C2F80835D2E7DC
:103808000348AEE7400300200300AD0B0000AD0BFA
:103818000B00AD0B10B54FF040200023C0F8083165
:103828000D49D0F8083101F016FCA0B98B7FFF2BA9
:1038380008D0012203F01F0302FA03F34FF0A0425D
:10384800C2F8083500234B770B72BDE81040D1E968
:1038580000310248184710BD4003002048030020EB
:103868000F4B70B553F82040013053F82060A64242
:1038780000D870BDD4E90035284698476DB138B1F5
:103888000028B8BF4042EB68FF28A8BFFF20187087
:10389800EA68537843F0010353700834E7E700BF40
:1038A8001C56000008B50A4B012202201A70FFF7C7
:1038B800D7FF00F00FFE0320FFF7D2FF00F0EAF871
:1038C800FCF7E4FE034A137B23F00103137308BDDE
:1038D800A10300200002002008B50348034A002184
:1038E800121A01F01DFC08BD60010020A40300208D
:1038F80070B5002386B00122CDE90423134E144D80
:1039080001930F22CDE902321249182303FB005517
:1039180006EBC01604464FF4A07000FB04110E4BD2
:1039280000954FF48072304600F082F8737B0B4AA2
:10393800EE6023F0040373734FF4046304FB033352
:1039480013442C756B6006B070BD00BF8001002069
:1039580068030020000C0020553B0000C003002035
:1039680080B52C4BA6B083F308882B4D2B4E6B6982
:103978002B4F43F4007300246B61E02385F8223059
:10398800EC772C766C76AC766B6A43F4E0236B624A
:1039980085F82340FDF7CEFEFDF79CFC4FF0FF3382
:1039A800AB62EB62FDF7AAFFFDF710FF40F20113CF
:1039B800ADF8243006ABB360CDE91F44229401F082
:1039C8007DFB2046FFF74CFF0120164DFFF748FF0F
:1039D80000F018FB144BF56105930123134900947B
:1039E800CDE903434FF480623B46CDE901442846C4
:1039F80000F01EF86A7B064622F0040228466A7325
:103A080001F0FBFB2046FFF773FF3A463146284694
:103A1800FDF766FD000C002000ED00E068030020C3
:103A2800AD3800000002002097560000400D00202D
:103A38002DE9FF410E9E0673042646730D9E86737C
:103A480000F158050F46D61DC0E916550C9A0025F9
:103A580026F007064037C0E90655C0E919768560A3
:103A6800C573C56606F1400802920B9A0192884414
:103A78000A9A009242460446FDF700FD044B65652C
:103A88009B6803B11B6F2367404604B0BDE8F08113
:103A9800680300202DE9F043294C2A4D87B02646BB
:103AA800AE4204F130040FD300F07CFA244CDFF866
:103AB80098904FF4004640F2E737AC4220D307B065
:103AC800BDE8F04300F082BA54F8043C059354F87A
:103AD800103C049354F8143C039354F8183C029394
:103AE80054F81C3C019354F8203C009354E90A23F1
:103AF80054E90C01FFF79CFF54F8303C5E65CEE7B3
:103B0800636A5A1C0DD023EAE37300213846C3FBCD
:103B1800060151EAC333D4F8008004D1404600F0CE
:103B2800F1F93034C9E74FF47A720023FCF7C0FA90
:103B380002460B4608F11800494600F0D9FBF0E7A9
:103B480060010020600100206F51000008B50B4C97
:103B58000B4D4FF02002EFF3118382F31288BFF36D
:103B68006F8F01F0A2FB2B78A06113B9FDF7B8FBAA
:103B7800EFE7FDF7E1FA0028EBD1F7E7680300204B
:103B8800A103002038B504464FF02003EFF3118558
:103B980083F31288BFF36F8F01F03FFB48B1002217
:103BA800826701F02AFB29460548BDE8384000F045
:103BB80097B9D4E902329A4218BF0133A360F2E7F9
:103BC800A203002013B54FF02004EFF3118184F312
:103BD8001288BFF36F8F846844B1013C846081F31D
:103BE8001188BFF36F8F002002B010BD52EA0304A2
:103BF80006D181F31188BFF36F8F6FF00F00F3E7E1
:103C0800CDE900230246024800F056F9ECE700BF70
:103C1800A203002038B5074D2C6854B1FEF784FE86
:103C2800054B04441C6128680021BDE8384001F0B8
:103C38004CBB38BD980300206803002038B50D4DF3
:103C48002B4653F8204F9C4200D004B9EC68AB686F
:103C580038B95A7BD20604D1A26912B9DA897F2A07
:103C680005D89C4202D02046FFF7D4FF2346EB61DB
:103C780038BD00BF6803002070B590F90D20437B64
:103C8800002A014604DA03F07F03437301F059FA6E
:103C98004B7B154A63F07F0310464B7350F8203F67
:103CA800546A834208BF002323B9C1E90004216094
:103CB80051620CE091F90E5093F90E60B5420ED0A6
:103CC800AE420CDD5868C1E9003001605960906867
:103CD800431A5842BDE870405841FFF7AFBF9C42B5
:103CE800E3D01B68E0E700BF6803002070B490F9D8
:103CF8000D30427B002B29DBD30627D183692BBBF0
:103D0800134962F07F0242730A4652F8204F9442E8
:103D180018BF23464C6A23B9C0E9002420604862D2
:103D28000CE090F90E5093F90E60B5420AD0AE42FD
:103D380008DD5A68C0E900321060586070BC002085
:103D4800FFF77CBFA342E7D01B68E4E770BC70476D
:103D58006803002008B590F90D20437B002A01462E
:103D680004DA03F07F03437301F0EBF9044B98681E
:103D7800431A58425841BDE80840FFF75FBF00BFEB
:103D8800680300202DE9F041064615461C464FF011
:103D98002003EFF3118783F31288BFF36F8F01F0CD
:103DA80004FA87F31188BFF36F8FB4F1FF3F08BFA0
:103DB800B5F1FF3F08D02A46234606F1180003490B
:103DC800BDE8F04100F094BABDE8F0816F51000001
:103DD800F8B504460D464FF02003EFF3118783F33F
:103DE8001288BFF36F8F00264FF4004C40F2E73083
:103DF80031464FF47A720023E4FB0C01FCF758F9C2
:103E0800B44202DD0228B8BF0220074A074B1060FF
:103E1800074A98681E611560FFF7FCFE87F3118852
:103E2800BFF36F8FF8BD00BF980300206803002020
:103E38009403002038B54FF02003EFF3118583F386
:103E48001288BFF36F8F174B174A9C6811688C4212
:103E580007D12046FFF7DEFE85F31188BFF36F8F89
:103E680038BD00211160114A1268C2B1E2897F2A67
:103E780015D8627BD20612D10D4A94F90E10126839
:103E880091420CDB0B4A944209D01A69824203DC46
:103E98002046FFF7F1FEDCE7121A1A61DCE7002280
:103EA800FBE700BF68030020900300209803002070
:103EB800940300208001002010B5074B9868074B39
:103EC8000C4618601146DDE90223FFF75BFF204628
:103ED800BDE81040FDF77EBA68030020900300207B
:103EE80049B9EFF3058030B9054BDA699B689A4206
:103EF80001D0FDF76FBA81F31188BFF36F8F704758
:103F08006803002010B54FF02002EFF3118482F30C
:103F18001288BFF36F8F427B510704D484F3118852
:103F2800BFF36F8F10BD22F004024273FFF7DEFE6D
:103F380021460248BDE81040FFF7D2BFA203002087
:103F480070B50446183001F09AF94FF02003EFF3EA
:103F5800118683F31288BFF36F8F94F90D20637B6A
:103F6800002A05DA03F07F036373204601F0E9F8BD
:103F78000B4D637BA86843F010036373031B58421F
:103F88005841FFF75BFE86F31188BFF36F8FAB686C
:103F9800A34203D1BDE8704001F067B970BD00BF0E
:103FA800680300204FF02003EFF3118183F3128898
:103FB800BFF36F8F044B9A68D37B013BD37381F3B4
:103FC8001188BFF36F8F70476803002010B54FF05A
:103FD8002003EFF3118483F31288BFF36F8F084B2C
:103FE8009A68D37B0133D3730020FFF727FE84F34D
:103FF8001188BFF36F8FBDE8104001F036B900BFDC
:1040080068030020044B002103F120020846C3E99D
:104018000822FFF7DDBE00BF68030020F8B54FF0A7
:104028002003EFF3118583F31288BFF36F8F1949CB
:104038008868437B03F07F03437301F082F88B6841
:104048005A7B084662F07F025A7350F8202F4C6A58
:10405800824208BF002222B9C3E9000423604B62F0
:104068000CE093F90E6092F90E70BE420ED0B74282
:104078000CDD5168C3E900210B6053600120FFF794
:10408800DDFD2846BDE8F840FDF7A4B9A242E3D01B
:104098001268E0E76803002050EA01032DE9F041C7
:1040A80005460E4603D1FFF7B9FF00202CE0831C1C
:1040B80071F1FF332ADB01F024F944194FF0200392
:1040C800EFF3118883F31288BFF36F8F114F124BF0
:1040D800B8681860FFF73EFEB86810492A463346AC
:1040E800183000F005F9BA68537B43F01003537396
:1040F8004046FDF76FF901F004F9201A63EB03035A
:10410800012873F10003D0DBBDE8F0816FF00104F2
:10411800241AD3E768030020900300206F510000A1
:10412800B1F1FF3F08BFB0F1FF3F08B506D1084B1A
:104138009868FFF705FF4FF0FF3008BDFFF7ACFFA9
:104148004FF47A7380FB0303C00B40EA4340F4E763
:1041580068030020014B9868704700BF680300207F
:104168002DE9F04104464FF02003EFF3118683F365
:104178001288BFF36F8F037BD9070BD586F311889D
:10418800BFF36F8F404080F311884FF0040002DFC7
:10419800BDE8F081437B1A0704D586F31188BFF385
:1041A8006F8FF5E723F0200242F00801D20920D1F1
:1041B8004173A36813B1204600F0CBFF04F1180047
:1041C80001F05DF804F158074FF00008A56DBD42F5
:1041D80000D0B5B90120FFF731FD104B9B68A34211
:1041E800DBD1EFF30583002BD7D13046FDF7F2F88A
:1041F800D3E703F05F0343F00803437300F0A1FF24
:10420800D7E7284600F0A5FF05F1180001F037F8B8
:10421800C5F878802846FFF769FDD7E768030020CE
:1042280008B50648064A0749121A00F07BFFBDE8A0
:104238000840054A0549064800F074BF0000002000
:1042480060010020C456000000000000C4560000B1
:1042580000000020034B1B680BB9FEF765BB00206C
:10426800704700BF9C03002010B5114B1C689C428E
:104278000AD1FFF7EFFF6FF000400E4B1B6913B137
:104288009842A8BF184610BDFFF7E4FF002CF2D0F3
:10429800D4E904321B1A62EBE072B3F1004F72F1F9
:1042A8000001E8DA002AACBF18460020E5E700BFA5
:1042B800480100206803002030B570B10B4B5B68E3
:1042C80098420AD0036843B1D3E90421D0E90445F0
:1042D800121941EB0501C3E90421D0E9003213604A
:1042E8005A600023C0E9003330BD00BF48010020F8
:1042F800B3F1FF3F08BFB2F1FF3FF8B504461D46D2
:10430800164661D081604FF02003EFF3118783F3E5
:104318001288BFF36F8F013275F1FF3324DA304909
:10432800D1E900206FF001039B1A4FF0FF3262EBD6
:1043380000009E1B60EB0500012E70F1000301DAFE
:1043480001260020C4E90460264ED6F800C075682E
:10435800B44508BF4FF0000CBCF1000F0DD1C4E903
:1043680000652C6074601CE0FFF774FF013645F1AE
:104378000005361845EBE070E4E7DCE90420D4E9F1
:104388000431934271EB000E1FDAD21ADCF80430C4
:1043980060EB0100CCE90420C4E900C31C60CCF840
:1043A80004403368B3420BD09C4209D1FFF75CFF4D
:1043B80018B10D4B1B69834202D00021FEF782FA27
:1043C80087F31188BFF36F8FF8BD9B1A61EB00016B
:1043D800AC45C4E90431C2D0DCF800C0BCE700BF7A
:1043E8008002002048010020680300202DE9F843DE
:1043F8000446FFF71FFD4FF02003EFF3118683F308
:104408001288BFF36F8F234FDFF88C80D8F8000035
:10441800224A3C604045D2E9003E4FEAE4710BD0A5
:1044280050B1D0E9045CAC4271EB0C0916DA2D1BD3
:104438006CEB010CC0E9045CE3184EEB01010024AD
:10444800C2E900313C60FFF70FFF2146FEF73AFA58
:1044580086F31188BFF36F8FBDE8F883EB184EEB36
:10446800E571C2E9003100220023C0E90423FFF707
:1044780023FF86F31188BFF36F8F836898474FF047
:104488002003EFF3118683F31288BFF36F8F3C6824
:10449800641BBBE79C030020480100208002002029
:1044A80010B54FF02003EFF3118483F31288BFF3A4
:1044B8006F8FFFF7CFFE064A0346D2E900011818AE
:1044C80041EBE37184F31188BFF36F8F10BD00BF18
:1044D80080020020024A0348114600F078B800BF65
:1044E800395600009C56000003460A4600681979B0
:1044F800012303FA01F103691B68194218BF82F00E
:10450800010212B18368DB68184783681B69FBE7FF
:1045180070B403460C46DA880068197922430569A5
:1045280086682B6801248C4012F0010F14BF2343C6
:10453800A3432B60336870BC1847014640F2E7304C
:1045480008B54FF47A72002300EBC1304914FBF729
:10455800AFFDBDE80840FFF7E3BD08B51020FBF745
:1045680031FF0120FBF746FFBDE808406420FFF754
:10457800E4BF08B52220FBF725FFF720FBF73AFF39
:104588002020FBF71FFFBDE80840FBF74BBF0346A1
:1045980058B1426802F00302012A03D0032A04D169
:1045A800026812B10020986070476FF015007047DC
:1045B8004268816002F00302032A4FF000020346BA
:1045C8000CBF006810465A607047002070470FB44F
:1045D80007B504A951F8040B0191FCF773F803B06F
:1045E8005DF804EB04B07047038B13F0070305D1A3
:1045F8000368002B0CBF002003207047022B05D155
:10460800408BB0FA80F0400980007047012B05D13B
:104618000368002B0CBF002005207047002070475E
:1046280010B50C4600B111B96FF0150010BD081D8A
:10463800FFF7ADFF0028F9D1A368032BF6D9F3E7FC
:104648002DE9F0410D4607461946281D90461E469D
:10465800FFF7AEFF044638B133464246294638468E
:10466800A446BDE8F0416047BDE8F08110B44FF0C2
:104678002004EFF3118284F31288BFF36F8F416136
:1046880010BC0121FCF72CB838B50C46054658B1CA
:1046980051B10B6843B14B6833B11C22002100F0C3
:1046A800F2F82C61002038BD6FF01500FBE770B5FB
:1046B80005460E46FFF7B4FF041E15DB4FF0200336
:1046C800EFF3118283F31288BFF36F8F6B8B2C8B00
:1046D8004FF6FF718B4204F0070407D182F311886B
:1046E800BFF36F8F6FF00A04204670BD022C0CD107
:1046F80001336B8382F31188BFF36F8F0023224647
:1047080031462846FFF79CFFEEE7062C14D8DFE871
:1047180004F004131313041A0400002333606B68B5
:104728003BB9C5E90066ACB902212846FBF7D8FFBA
:10473800DAE71E606E60F6E782F31188BFF36F8FC9
:104748006FF00404D0E782F31188BFF36F8F6FF026
:104758008504C9E782F31188BFF36F8FC4E7044665
:1047680008B5084611461A46A047FFF7F3FCFDF7BF
:1047780017F82DE9F84F9A46D3786F2B80460F46E5
:104788001546A3F1410B29D024D8582B0CBF10266D
:104798000A26DDF828903246002340463946FBF7C2
:1047A80087FC092AD4B21ED83034B045E4B277F178
:1047B800000709F8014D01D3D14511D82B789B0684
:1047C80005D5082E15D1AB7843F00803AB704846E1
:1047D800BDE8F88F03F0F703702BD7E70826D8E772
:1047E80080460F46D7E7BBF1190F94BF37345734CB
:1047F800DBE7102EEBD1AB7843F01003E6E72DE9A9
:10480800F0410746884615461E461446B44205D36D
:104818000EB1601B08E02378002BFAD014F8010BC6
:104828004146B8470028F1DABDE8F081704700F04A
:104838005CBC0146006800F058BC00210120FFF76D
:10484800F6BF08B5FCF7ACFDBDE80840FCF77EBE36
:10485800034600201A5C02B970470130FAE70346A4
:1048680000201A5C0AB1884200D170470130F8E78D
:1048780010B5431E0A44914200D110BD11F8014BF6
:1048880003F8014FF7E7C9B202440346934200D147
:10489800704703F8011BF9E74FF02002EFF311838B
:1048A80082F31288BFF36F8F4FF080420121C2F864
:1048B800781583F31188BFF36F8F0020704706289F
:1048C80008D14FF080430122C3F80025BFF34F8F72
:1048D80020BFFDE77047002383F31188BFF36F8F74
:1048E80070470369C9B20C2201FB0233186C00F04F
:1048F800070070474FF02003EFF3118283F312880B
:10490800BFF36F8F036803F0C00343F00203036033
:1049180082F31188BFF36F8F704770B5C9B203690E
:104928004FF02004EFF3118584F31288BFF36F8FE3
:104938000C2606FB0134246C14F0C00408D0A242F3
:1049480006D085F31188BFF36F8F4FF0FF3070BD2D
:1049580006FB013301221A6485F31188BFF36F8FB8
:10496800436803EBC1035B6898470020EFE78022A8
:10497800FFF7D3BFF8B5069F0469C9B24FF0200509
:10498800EFF3118685F31288BFF36F8F0C2505FBB3
:104998000144256C05F0070CBCF1010F0CD127640C
:1049A80086F31188BFF36F8FC4E90E23436853F869
:1049B800313098470020F8BD05F0C005AF4286F3B6
:1049C8001188BFF36F8F0CBF6FF077004FF0FF3087
:1049D800F1E713B580240094FFF7CCFF02B010BDB7
:1049E80010B40069CBB21C2403FB0400002110BCE6
:1049F8001047002000F0E3BA002000F01CBB10466E
:104A0800FFF7C0B843685B68D3F810350B60002027
:104A1800704743685B6802EA010021EA0201C3F8B3
:104A28000805C3F80C150020704743685B68002030
:104A3800C3F80815704743685B680020C3F80C1575
:104A4800704743685A68D2F8043521EA03000B40DE
:104A5800C2F80805C2F80C350020704710B5036984
:104A6800586848B1884213D19C6808685860A142C8
:104A780000D19860002008607AB9002010BD8142FA
:104A880006D10868206098688142F3D19C60F1E7FC
:104A9800044600680028F2D13AB15A680A609A6858
:104AA8005960002AE9D19960E7E76FF01500E5E75A
:104AB800002201210420FCF75BBC10B50B6813B978
:104AC8001360184605E003685C681CB1146003684D
:104AD800186810BD083303600B68013B0B60EDE7F5
:104AE80003460A4600681979012303FA01F10369AC
:104AF8001B68194218BF82F0010212B18368DB6893
:104B0800184783681B69FBE738B503680446E3B1B7
:104B18009868D0B10568C5B149B10121FFF7E0FF38
:104B280023689B689868BDE8384000F0EEBB12B96E
:104B38009B88DB0409D4806800F0E7FB2368002128
:104B48009868BDE83840FFF7CBBF38BD10B50122E3
:104B580000210446FFF7D8FFA36933B9636004F165
:104B68001000BDE81040FFF70DB810BD10B5006982
:104B780003688B4206D190F85C4034B9FFF7E6FF32
:104B8800204610BD6FF01500FBE76FF00F00F8E747
:104B98002DE9F34144680569266A01AA00213046D7
:104BA80000F066F9002843DB019B32681979186820
:104BB80000F074F900283BDBE3699847AC680126EC
:104BC8000834D5E9023203EBC203A4F10802934288
:104BD80004D82846FFF7BAFF002029E054F8080C4B
:104BE80000F06DFA38B354F8080C14F8041C34F8C3
:104BF800023CD0F810C0D0F80880DCF80070DA0762
:104C080054BF43F4B01383F4D01323F4801206FA8C
:104C180001FEDB074CBF4EEA070727EA0E07CCF870
:104C28000070D8F800309847002804F10804C8DA62
:104C380002B0BDE8F0816FF01200F9E738B50378EB
:104C48000C46002B3CD18B6C8D6D93B19D4210D8D6
:104C58005B1B8B6443BB4B6B08334B638B6B013B18
:104C68008B6301F1480204F134003831FFF725FF66
:104C78006064236D9BB19D4211D85B1B2365CBB942
:104C8800E36B0833E363236C013B236404F15002B4
:104C980004F1400104F13C00FFF70FFFE064606D90
:104CA800BDE83840FDF704B94B6C002BE1D02B442C
:104CB8004B64DEE7E36C002BF1D02B44E364EEE7B2
:104CC80038BDF0B403460A461979DB8800681343F7
:104CD800DC028768066906D513F4402F03D0DA078B
:104CE80048BF83F44023346801258D4023F48012A3
:104CF800DB074CBF2C43AC4334603B68F0BC18471F
:104D080037B5034600681C790569836801A95B68A3
:104D1800984740B9019B2A685A400123A3401A4288
:104D280014BF0120002003B030BD30B50446086828
:104D380008B9106008E0206845689D4205D3B5FBB6
:104D4800F3F515602368186830BD083020600868DE
:104D580001380860EBE703460A4600681979012321
:104D680003FA01F103691B68194218BF82F00102B6
:104D780012B18368DB68184783681B69FBE738B59D
:104D880044680569206800F09AF910B96FF01200BC
:104D980038BD4FF4B0112046FFF793FF0028F7DB2A
:104DA800A06850B92069A8B9AC68D5E9023203EB0C
:104DB800C2039C421BD30020EAE700F080F90028D8
:104DC800E4D04FF4B01104F10800FFF77AFF00288F
:104DD800E8DADDE700F073F90028D7D04FF4803126
:104DE80004F11000FFF76DFF0028DDDAD0E7206836
:104DF80000F065F90028C9D04FF4B0112046FFF73C
:104E080060FF0028C4DB0834CFE738B503680446E0
:104E1800E3B19868D0B10568C5B149B10121FFF780
:104E28009AFF23689B689868BDE8384000F06DBA1F
:104E380012B99B88DB0409D4806800F066FA2368FD
:104E480000219868BDE83840FFF785BF38BD10B528
:104E58000469012200212046FFF7D7FFA36923B97F
:104E6800636004F11000FEF78DFE002010BD70474E
:104E780070B543686FF060461360057A446835443E
:104E880004EBC504A34202D96FF0010070BD5C7940
:104E98008C4201D00833EFE70020F7E72DE9F04115
:104EA80000EB81014FF0010C4FF0A047814202D185
:104EB8000020BDE8F081056805F07F03C5F34324B1
:104EC8007F2B4FEA154508BF4FF0FF330C2D50D804
:104ED800DFE805F0071116191C27194F4F4F4F2B04
:104EE8004C00C2F80C3503F01F050CFA05F5C7F89D
:104EF8000855012502E0C2F8143500252E461BE0AE
:104F0800C2F80835EFE7C2F81035F6E7C2F80835F9
:104F1800002503F01F060CFA06F6C7F80C650126F3
:104F28000AE0C2F80C350125F3E7C2F80835002C71
:104F3800E3D100252E46062450F804EB0EF4005861
:104F4800B8F1000FCEF3C11E4FEA042418BF0026A3
:104F580003F01F0344EA8E0418BF0125344303F508
:104F6800E07344EA450447F823409FE7C2F80C354C
:104F7800DDE76FF085009CE74FF08053D3F83001F0
:104F8800421C04BF4FF0704393F8E00F062804D08A
:104F9800A0F10A0358425841704701207047004762
:104FA80000F0B3B908B50020FCF7D4F908B9FCF74C
:104FB800AFF94FF080430022C3F8182508BD08B5A3
:104FC80010B101282CD008BD4FF08042D2F8183417
:104FD800D2F81814C8030BD4D2F81434D9070FD553
:104FE800D2F81C349B0708D40223C2F80433EAE73A
:104FF80003F00303012B04D013B10020FDF7A8FE32
:1050080000234FF08042C2F818350023C2F804315B
:10501800D2F804310223C2F8043301239360D2E7A3
:105028004FF080430022C3F80021D3F80021C3F8D1
:1050380004031860C7E7FDF78BBE00F01F0080006F
:1050480000F1A040D0F8003723F4403343EA01438D
:10505800C0F80037704737B5D0F818358A69DBB221
:105068008DF807300B6A93423EBF4A699DF80740A6
:10507800D4540B6A91F824500C695A1C0A62023302
:1050880035B1A3428C6938BF0B619C4288BF8B61E4
:105098000D699D4205D9CA68D35CC0F81C3501204A
:1050A8000AE08C699C4201D9CB7FF6E7AA42F6D385
:1050B800A2422CBF0020012003B030BD704738B198
:1050C800C3681888C0F30800A0F580735842584197
:1050D80070474FF02002EFF3118382F31288BFF379
:1050E8006F8FFEE708B5FFF7F4FFF8B505460E46E3
:1050F8004FF02003EFF3118783F31288BFF36F8F0C
:10510800FFF728F8314604462846FFF7EBFF87F3F8
:105118001188BFF36F8F2046BDE8F840FCF740BB0D
:10512800FFF7B1BBFFF7A4BBEFF30580003818BF4A
:105138000120704708B5FBF7C3FFBDE80840FFF73B
:1051480096BED0E9003213605A600023C0E90033EC
:10515800704708B5FFF7F5FF437B23F0020343735D
:105168000023836008BD10B501464FF02003EFF31C
:10517800118483F31288BFF36F8F10F80B3C13F080
:10518800280F0DD151F8103C18380BB1FFF7E1FF8B
:1051980011F80B3C23F0140301F80B3CFEF7A6FDB5
:1051A80084F31188BFF36F8F10BD38B504460D46E0
:1051B800FEF7D0FD637B43F002036373E5B1A5609E
:1051C8002B689D4209D16B68C4E900531C606C6070
:1051D80012E06A689342F6D01B68002BF3D094F96A
:1051E8000E2093F90E108A42F3D09142F1DD5A68ED
:1051F800C4E9003214605C6038BD10B54FF020037C
:10520800EFF3118483F31288BFF36F8FFEF76EFDFF
:1052180084F31188BFF36F8F10BD38B54FF02003AA
:10522800EFF3118583F31288BFF36F8F0468A042F0
:105238000DD034B12046FFF78CFF04F1180000F0C0
:105248001EF885F31188BFF36F8F204638BD002400
:10525800F7E7034620B9EFF305820AB9FCF7BAB8B5
:1052680083F31188BFF36F8F70474FF02003EFF37C
:10527800118083F31288BFF36F8FFFF7EABF10B571
:105288004FF02002EFF3118482F31288BFF36F8F7F
:1052980003683BB1FFF710F8002084F31188BFF3CF
:1052A8006F8F10BD6FF01500F7E710B54FF02003B2
:1052B800EFF3118483F31288BFF36F8FFEF7D4FFE7
:1052C80084F31188BFF36F8F10BD70B504460D4687
:1052D8004FF02003EFF3118683F31288BFF36F8F2B
:1052E800FEF7C2FF012807DDA04205DBA0422946E0
:1052F800A8BF2046FDF7E6FA86F31188BFF36F8F43
:1053080070BD08B5FFF7CCF808BD08B1FCF726BB9F
:045318007047704723
:08531C00D0ADFF7F010000008D
:10532400A148000000000000ED19000054530000E3
:105334001D1D00006C5300006927000000000000E0
:10534400994B000084530000874D00009C530000DB
:105354004F560000605500007055000050010020B9
:10536400CC020020BA5400005E5600008C550000A8
:105374009C5500005401002020030020B25400007A
:105384006C560000C05500000C5600005801002067
:1053940008000020AC54000079560000C80000202A
:1053A400E00000205C01002068000020A4540000FC
:1053B400412E0000A74F00000000000043480000F9
:1053C40000000000434800000000000043480000C3
:1053D4001D380000A74F00000000000043480000F3
:1053E400AD330000A74F0000000000004348000058
:1053F4000000000043480000000000004348000093
:105404000000000043480000000000004348000082
:105414000000000043480000000000004348000072
:105424000000000043480000000000004348000062
:10543400000000004348000000000000E9270000CD
:105444000000000043480000000000004348000042
:105454000000000043480000000000004348000032
:105464000000000043480000000000004348000022
:105474000000000043480000000000004348000012
:105484000000000043480000000000004348000002
:1054940000000000434800000000000043480000F2
:1054A400020000800080FF7F00800080FF7F00807A
:0C54B40000800400FF7F00800080FF7F6C
:1054C0006C53000014000100000000000000000008
:1054D0000338FDD8704700006C5300001E00010027
:1054E0006C5300001C0001006C5300001900010007
:1054F0006C5300000A0000006C5300000C00000018
:105500006C5300000E0000006C5300000900000006
:105510006C530000060000006C5300000500000002
:105520006C53000004001000000000200000000088
:1055300000000B06020000003C55000000000000C7
:1055400040560000220002070000002048560000DC
:105550001C000B11A91900007919000000000000BF
:10556000951A00002D1B0000FB490000014A0000B5
:10557000F91A000077490000DB4900000000000034
:10558000EB4800000000000000000000FFFFFFFFEC
:10559000000000500000000000000000911D00000D
:1055A0000D4A00001B4A0000334A00003F4A000039
:1055B0004B4A0000551C0000654A00000000000036
:1055C0000040004000000000000000FF00FF00005D
:1055D000000000000000000101000000B94A0000C6
:1055E000E455000000400040F055000001000000BC
:1055F000F8550000030000001D0004001F00050016
:105600001E0006000000000000000000391F00001E
:10561000754B00006C53000014000100245300007F
:105620003C53000044530000545300005453000006
:10563000F5FFFFFF010203040500286E696C2900D5
:10564000464C4153485F30005352414D5F30006338
:105650006C6F636B40343030303030303000677006
:10566000696F403530303030303030007370694011
:105670003430303034303030007370696262300062
:105680000000010000000001000000010100000115
:10569000010101000000006D61696E002A2A2A20C4
:1056A000426F6F74696E67205A6570687972204F17
:1056B00053206275696C64202573202573202A2A83
:0456C0002A0A0000B2
:1056C400D3450000FFFFFFFF0000000000000000C2
:1056D40004560000000000001800002018000020FC
:1056E4000000000001000000280000202800002025
:1056F40000000000010000000000000000000000A5
:105704000000000000000000000000000000000095
:1057140000000000000000000000000084530000AE
:105724000000000000000000000000000000000075
:1057340014560000010000007800002078000020CA
:105744000000000001000000880000208800002004
:105754000000000001000000000000000000000044
:105764000000000000000000000000000000000035
:105774000000000000000000000000000000000025
:1057840000000000000000006C5300001200000044
:105794006C5300000C0000006C530000100000006B
:1057A40091210000574E00000090D003000000003B
:1057B40000000000000000000000000000000000E5
:1057C40000000000000000000000000000000000D5
:1057D40000000000000000000000000000000000C5
:1057E40000000000000000000000000000000000B5
:1057F400000000000000000000000000FF000000A6
:1058040000000000000000004801002048010020C2
:105814000000000000000000000000000000000084
:040000030000177969
:00000001FF
